:020000040800F2
:1000000010100020050100085501000851010008EA
:10001000530100084D01000895020008000000008F
:100020000000000000000000000000007501000852
:100030004F01000800000000570100082D020008D1
:100040001F0100081F0100081F0100081F01000810
:100050001F0100081F0100081F0100081F01000800
:100060001F0100081F0100081F0100081F010008F0
:100070001F0100081F0100081F0100081F010008E0
:100080001F0100081F0100081F0100081F010008D0
:100090001F0100081F0100081F0100081F010008C0
:1000A0001F0100081F0100081F0100081F010008B0
:1000B0001F0100081F0100081F0100081F010008A0
:1000C0001F0100081F0100081F0100081F01000890
:1000D0001F0100081F0100081F0100081F01000880
:1000E0001F0100081F0100081F010008DFF810D0E1
:1000F00000F01AF800480047B5020008AFF300808E
:10010000101000200648804706480047FEE7FEE73B
:10011000FEE7FEE7FEE7FEE7FEE7FEE7FEE7FEE7B7
:1001200045020008ED000008064C074D06E0E068B7
:1001300040F0010394E8070098471034AC42F6D32E
:10014000FFF7D8FF0003000820030008FEE7704710
:10015000FEE7FEE770477047054A002903D0916922
:10016000014391617047916981439161704700003B
:1001700000100240704700F001B800000CB50022EA
:10018000019200922748016841F4803101604FF4E8
:10019000A063016801F4003100910199491C0191AB
:1001A000009911B901999942F3D10168890302D5E7
:1001B0000121009100E000920099012930D11A49F3
:1001C0000A6842F010020A600A6822F007020A6018
:1001D0000A6842F002020A60416841604168416079
:1001E000416841F480614160416821F47C114160C3
:1001F000416841F4E8114160016841F0807101609B
:1002000001688901FCD5416821F003014160416822
:1002100041F0020141604168C1F381010229FAD134
:100220000CBD00000010024000200240044801689C
:100230004268491C42F100020160426070470000C0
:100240000400002010B50F48016841F00101016071
:1002500041680D4A1140416001680C4A114001603B
:10026000016821F480210160416821F4FE014160B0
:100270004FF41F018160FFF77EFF05494FF00060DA
:10028000086010BD001002400000FFF8FFFFF6FEFE
:1002900008ED00E0FEE702E008C8121F08C1002ACE
:1002A000FAD170477047002001E001C1121F002AF7
:1002B000FBD1704701210420FFF74EFF0F48016872
:1002C00021F00F010160016841F002010160016845
:1002D00021F0F0010160016841F0800101600748F0
:1002E000022110300160054B01220833C9031C684C
:1002F000A40701D40260FAE70160F8E700080140B2
:1003000020030008000000200C00000096020008F6
:100310002C0300080C00002004100000A6020008B6
:0C032000000000000000000000000000D1
:04000005080000ED02
:00000001FF
