:020000040800F2
:100000002810002005010008A10800084D0800087C
:10001000510800084D070008DD0A00080000000034
:100020000000000000000000000000007909000846
:100030005107000800000000A3080008650A000836
:100040001F0100081F0100081F0100081F01000810
:100050001F0100081F0100081F0100081F01000800
:100060001F0100081F0100081F0100081F010008F0
:100070001F0100081F0100081F0100081F010008E0
:100080001F0100081F0100081F0100081F010008D0
:100090001F0100081F0100081F0100081F010008C0
:1000A0001F0100081F0100081F0100081F010008B0
:1000B0001F0100081F0100081F0100081F010008A0
:1000C0001F0100081F0100081F0100081F01000890
:1000D0001F0100081F0100081F0100081F01000880
:1000E0001F0100081F0100081F010008DFF810D0E1
:1000F00000F01AFB00480047C9130008AFF3008066
:10010000281000200648804706480047FEE7FEE723
:10011000FEE7FEE7FEE7FEE7FEE7FEE7FEE7FEE7B7
:100120007D0A0008ED000008D2B201E000F8012BC2
:10013000491EFBD270470022F6E710B513460A4667
:1001400004461946FFF7F0FF204610BD2DE9FE4F8B
:10015000804681EA0300C00F0C46009021F0004168
:1001600023F00045B8EB0200A94105D240462146E4
:1001700090461C460B46024623F00040104347D0F1
:10018000270DC7F30A00C3F30A510290401A0190E9
:1001900040286BDAC3F3130040F4801B00989246AA
:1001A00020B10023D2EB030A63EB0B0B01985946F5
:1001B000C0F14002504600F0C1F906460D465046D7
:1001C0005946019A00F0D9F910EB0800614100246A
:1001D00087EA115284EAE7731A4340D0009A62B367
:1001E000019A012A4FEA075215DC001B61EB02015C
:1001F0004FF0004202EA0752CDE90042001C41F5EF
:10020000801132462B4600F010FA03B0BDE8F08FA3
:1002100040462146F9E7001B61EB0201001C41F555
:10022000801300185B412018A2F5001747EB03016B
:1002300040EAD570B6196D4111E06D084FEA3606F7
:1002400045EAC0754FEA0752001B61EB0201001C32
:1002500041F5801149084FEA3000001951413246FA
:100260002B4603B0BDE8F04F00F0D0B90098012252
:1002700040000023D0EB020263EBE07300982146BC
:100280004FEAE074B8EB000061EB0401E9E783F0AA
:1002900000435BE781F0004158E72DE9FE4F81EA1A
:1002A000030404F0004421F0004100944FF0000BDF
:1002B00023F0004350EA01045ED052EA03045BD00D
:1002C000C3F30A54C1F30A552C44A4F2F334019445
:1002D000A0FB0254C1F3130141F48011C3F31303D3
:1002E00043F4801301FB024400FB034E840A970A87
:1002F00044EA815447EA8357A4FB076802958D0AB4
:1003000005FB07854FEA932C04FB0C542705029D3F
:100310004FEA065847EA1637B5EB08056EEB070CAF
:10032000870E920E47EA811742EA8312A7FB020169
:10033000B6EB0B0164EB00042B0D43EA0C335E18A3
:1003400044EB1C50DA465146E7FB0201C5F31304A7
:100350004FEA0B3343EA14534FEA0432019C43EA59
:100360000603A4F10C040294009CCDE900B400F053
:100370005CF903B0BDE8F08F00200146F9E72DE9F4
:10038000F04D81EA030404F0004B21F000451446CF
:100390004FF0000A23F0004150EA050220D054EA51
:1003A00001021DD0C5F30A570246C5F31303C1F37A
:1003B0001300C1F30A5640F4801543F48013A7EBF1
:1003C0000608101BD64608F2FD3873EB050002D371
:1003D00008F1010801E092185B41B8F1000F03DA5F
:1003E00000200146BDE8F08D00204FF48011064644
:1003F00084460EE0171B73EB050705D3121B63EB56
:10040000050306434CEA010C49084FEA30009218F4
:100410005B4150EA0107EDD152EA030012D082EAB3
:10042000040083EA0501084305D0101BAB4106D246
:100430000122002306E000224FF0004302E06FF0AB
:10044000010253101AEB06004CEB085110EB0A00A6
:1004500041EB0B01BDE8F04D00F0D8B80EB540F20D
:10046000334102910021CDE900110A460B4600F00C
:10047000DCF803B000BD01F0004330B421F00041CE
:1004800050EA010206D00A0DA2F56072C1F3130111
:10049000002A02DC30BC00207047440F44EAC1044B
:1004A000C100E01830BC00EBC25000F078B830B5A5
:1004B0000B46014600202022012409E021FA02F522
:1004C0009D4205D303FA02F5491B04FA02F52844BC
:1004D000151EA2F10102F1DC30BD2DE9F05F0546E9
:1004E000002092469B4688460646814640241BE0F3
:1004F000284641464746224600F02FF853465A46C2
:10050000C01A914110D311461846224600F016F841
:100510002D1A67EB01084F4622460120002100F00A
:100520000DF817EB00094E41201EA4F10104DFDC99
:10053000484631462A464346BDE8F09F202A04DB60
:10054000203A00FA02F1002070479140C2F12003E6
:1005500020FA03F3194390407047202A04DB203A25
:1005600021FA02F00021704721FA02F3D040C2F1D3
:1005700020029140084319467047202A06DBCB171A
:10058000203A41FA02F043EAE07306E041FA02F34E
:10059000D040C2F12002914008431946704700291B
:1005A000A8BF7047401C490008BF20F001007047F9
:1005B00010B4B0FA80FC00FA0CF050EA010404BF59
:1005C00010BC704749B1CCF1200421FA04F411FAAF
:1005D0000CF118BF012121430843A3EB0C01CB1DF3
:1005E0004FEA00614FEA102042BF002010BC704764
:1005F00000EBC35010440029A4BF10BC7047401C3E
:10060000490008BF20F0010010BC704710B5141E4F
:1006100073F1000408DA401C41F1000192185B41BB
:100620001A4301D120F0010010BD2DE9F04D924692
:100630009B4611B1B1FA81F202E0B0FA80F22032A9
:100640009046FFF77BFF04460F4640EA0A0041EA66
:100650000B0153465A46084313D0114653EA010092
:1006600019D0C8F140025046FFF777FF05460E4605
:10067000504659464246FFF761FF084305D0012026
:1006800004E020463946BDE8F08D0020054346EAE7
:10069000E0762C4337430A986305E40AA0EB080090
:1006A0000022FD0A44EA47540A3002D500200146E0
:1006B000E9E7010510196941DDE9084500196941BB
:1006C000BDE8F04DA2E7C1F30A52C1F3130140F2B5
:1006D000FF3341F480119A4202DA0020014670474C
:1006E00040F233439A42A2F2334202DC5242FFF715
:1006F00034BFFFF723BF000030B5041E71F10004C2
:1007000004DB4FF00044404264EB0101141E73F11E
:10071000000405DB1C464FF00043524263EB040328
:10072000994208BF904230BD064C074D06E0E06894
:1007300040F0010394E8070098471034AC42F6D328
:10074000FFF7D8FCA4140008C414000800BFFEE79B
:100750007047000070B5044600F00EF805480068C8
:100760000519002600BF034800680021401BB14165
:10077000F9D370BD140000202DE9F04186B02E4859
:100780000078002855D101202B490870142101A8B8
:10079000FFF7D1FC4FF0E020006920F001004FF09E
:1007A000E021086100202549086001A800F07AF8DE
:1007B0004FF0E020006940F002004FF0E0210861B6
:1007C00000211F48C1774FF47A710298B0FBF1F411
:1007D000B4F1807F09D3E4084FF0E020006920F0F5
:1007E00004004FF0E021086107E04FF0E0200069CD
:1007F00040F004004FF0E0210861601E4FF0E0215E
:1008000048610846006940F001000861496921F02B
:100810007F41481CFFF722FE07463A460B46002060
:100820000849FFF7ACFD0546FFF725FE06490860BD
:1008300000BF06B0BDE8F0811800002014000020C1
:1008400000ED00E000408F401C00002000BFFEE7EC
:1008500000BFFEE71049C96941F400310E4AD16179
:1008600040F239110D4A1180002000BF00BF40F056
:10087000080040F00400111D0880091D098821F4BA
:100880004051064A08321180111F098841F4005175
:10089000121F118070470000001002400844004001
:1008A0007047704730B500210022002400232D4DF1
:1008B0006D6805F00C0121B1042905D0082923D168
:1008C00005E0294D056022E0274D05601FE0254D1C
:1008D0006D6805F47012234D6D6805F480340225AF
:1008E00005EB92421CB9214D554305600BE01D4DAF
:1008F0006D6805F400351DB11C4D5543056002E0DF
:10090000194D5543056002E0174D056000BF00BF5B
:10091000144D6D6805F0F0010909154D6B5C056813
:10092000DD4045600F4D6D6805F4E061090A104D2A
:100930006B5C4568DD4085600A4D6D6805F460516B
:10094000C90A0B4D6B5C4568DD40C560054D6D689F
:1009500005F44041890B074D6B5CC568B5FBF3F5A9
:10096000056130BD0010024000127A0000093D0010
:100970000000002010000020704710B500F002F8C1
:1009800010BD00000CB500200190009033480068B5
:1009900040F480303149086000BF3048006800F4FE
:1009A000003000900198401C0190009818B90198FF
:1009B000B0F5A06FF1D12948006800F4003010B103
:1009C0000120009001E0002000900098012843D110
:1009D0002348006840F0100021490860084600687C
:1009E00020F0070008600846006840F00200086038
:1009F0001A484068194948600846406848600846F7
:100A0000406840F4806048600846406820F47C10EC
:100A100048600846406840F4E810486008460068AE
:100A200040F08070086000BF0C48006800F0007063
:100A30000028F9D00948406820F0030007494860C1
:100A40000846406840F00200486000BF0348406824
:100A500000F00C000828F9D10CBD00000010024085
:100A6000002002400448036840685A1C40F100001E
:100A700001490A60486070471400002010B513480F
:100A8000006840F0010011490860084640681049BC
:100A900008400E494860084600680E4908400B4966
:100AA00008600846006820F4802008600846406816
:100AB00020F4FE0048604FF41F008860FFF75DFFE0
:100AC0004FF000600449086010BD000000100240B3
:100AD0000000FFF8FFFFF6FE08ED00E000BFFEE7B4
:100AE0000FB4054B10B503A9044A029800F0DAF8D8
:100AF00010BC5DF814FB0000AD13000820000020BE
:100B000002E008C8121F08C1002AFAD170477047D6
:100B1000002001E001C1121F002AFBD17047000034
:100B20002DE9FF5F82B00021DDE90430020DDDF820
:100B300040B0034318D044F61050A2F2FF324243B3
:100B40001514119801281FD0A5EB0B00401C5FEA7B
:100B5000000A4FF000064E4FDFF83891B04650467D
:100B600015D5CAF1000413E0119801244AA3012805
:100B700001D16FEA0B010298119AC0E90031C0E976
:100B8000024206B0BDE8F09FCBF10000DFE704466B
:100B90000021404A491842EB0450CDE9001012E010
:100BA000E00707D032463B4640464946FFF775FB13
:100BB0008046894632463B4610461946FFF76DFB94
:100BC00006460F466410002CEAD1DDE90401DDE998
:100BD0000023BAF1000F06DAFFF75FFB42464B46EF
:100BE000FFF75BFB05E0FFF7CAFB42464B46FFF70A
:100BF000C6FB04460E460022284BFFF77DFD03D8B6
:100C00004FF0FF30014607E00022254B20463146D9
:100C1000FFF79CFAFFF757FD102409E0002C0ADBD0
:100C20000A220023FFF759FC039B30321A55641E39
:100C300050EA0102F2D1641C039AC4F11103144476
:100C4000119A012A03D0012208430DD10AE008437A
:100C500004D000204FF0110B119072E7A3EB0B05AD
:100C60006D1E0DE05B4504DD4FF0000205F101054E
:100C700004E003DA4FF00002A5F10105002AECD0F0
:100C800002981199C0E90231C0E9004579E70000F6
:100C9000000014400000F03F300000000000F0436E
:100CA0000000E03F2DE9FF4F95B09A468846064682
:100CB0000025EEE1252877D100242746F94A0121B5
:100CC000039400E0044316F8013F203B01FA03F0CF
:100CD0001042F7D130782A2811D06FF02F033078E6
:100CE000A0F13002092A16D8039A44F0020402EB5C
:100CF000820203EB42021044761C0390EFE758F89F
:100D0000042B0392002A03DA504244F40054039067
:100D100044F00204761C30782E2816D116F8010F04
:100D200044F004042A280DD06FF02F023078A0F18F
:100D30003003092B09D807EB870302EB4303C718DD
:100D4000761CF3E758F8047B761C30786C280FD0BB
:100D500006DC4C2817D068280DD06A2814D104E08E
:100D6000742810D07A280FD10DE044F400140AE062
:100D700044F4801401E044F440147278824202D1B9
:100D800004F58014761C761C307866280BD013DCB2
:100D9000582877D009DC002875D04528F6D0462899
:100DA000F4D047281AD193E118E0632835D064289D
:100DB00079D0652812D18BE1702873D008DC6728C0
:100DC000F1D069286FD06E280DD06F2806D1ACE025
:100DD00073282CD0752874D0782853D05246179990
:100DE00090476D1C54E1C4F30250022809D0032837
:100DF0000DD0D8F8001004280DD00D6008F10408BB
:100E000046E1D8F80010EA17C1E90052F6E7D8F831
:100E100000100D80F2E70D70F0E718F8041B8DF854
:100E2000001000208DF80100EB46012003E058F887
:100E300004BB4FF0FF3061074FF0000102D40DE01A
:100E400009F101018946B9420FDA8145F8DB1BF847
:100E500009100029F4D108E009F101018946814215
:100E6000FADB1BF809100029F6D103985346A0EBD2
:100E7000090721463846179A00F080FA284400EB0B
:100E8000090507E044E008E10DE01BF8010B5246BC
:100E900017999047B9F10109F7D2534621463846D0
:100EA000179AF2E039E00A21C4F302524FF0000B26
:100EB0000091022A06D058F8040BC117032A09D062
:100EC0000AE023E008F1070020F00702F2E802013F
:100ED000904605E000B2C117042A01D140B2C11703
:100EE000002906DA0A460021404261EB02012D2268
:100EF00002E0220504D52B228DF80420012203E014
:100F0000E20701D02022F7E7914657E00A2100E0EE
:100F100010214FF0000B00910BE010214FF0000B5F
:100F200044F004040827009103E008204FF0000B70
:100F30000090C4F30252022A05D058F8040B002195
:100F4000032A08D008E008F1070020F00702F2E8C1
:100F50000201904603E080B2042A00D1C0B24FF0F3
:100F6000000922072AD53278702A07D0DDF800C0A0
:100F70008CF0100C5CEA0B0C05D00EE040228DF8D2
:100F80000420012208E050EA010306D030238DF846
:100F900004308DF8052002229146009B83F008035F
:100FA00053EA0B030AD150EA010201D1620705D5C9
:100FB00030228DF804204FF001097F1E3278582A24
:100FC00004D039A20C920CAA02920BE03BA2F9E7E2
:100FD0005B46009AFFF781FA0C9B9B5C029A521EBB
:100FE0000292137050EA0102F2D1029804A9081A81
:100FF00000F1200B600702D524F4803400E00127C3
:101000005F4502DDA7EB0B0000E0002000EB0B01C9
:10101000009003984944401A0390E00306D45346D5
:101020002146179A039800F0A9F90544002706E025
:1010300001A85246C05D179990476D1C7F1C4F4513
:10104000F6DBE0030CD553462146179A039800F0CF
:1010500095F9054404E030205246179990476D1CDD
:101060000099481E00900029F5DC08E002980299DA
:1010700052460078491C0291179990476D1CBBF1AC
:101080000001ABF1010BF1DC5BE100F065F9054417
:10109000761C307800287FF40DAE19B02846BDE8E4
:1010A000F08F0000092801003031323334353637F3
:1010B00038396162636465660000000030313233A4
:1010C0003435363738394142434445460000000044
:1010D000600700D4062708F1070020F00700F0E8B9
:1010E0000223804603F0004C5FEA0C0001D097A079
:1010F00009E0200501D596A005E0E00701D095A004
:1011000001E0AFF24C001390307823F000436528E3
:101110000CD006DC452809D046281DD047287FD1B1
:101120003BE0662818D067287AD136E00021112FDD
:1011300001DB112000E0781CCDE9000104A90CA816
:10114000FFF7EEFCDDE90D010C9A4FF0000B07F103
:101150000109109200914EE04FF000400097CDE958
:10116000011004A90CA8FFF7DBFCDDE90D020C9BC4
:101170000F994FF0000B91461093009211B9791C12
:1011800000EB0109B7EB090003D4C0F1FF3B07F105
:101190000109A9EB0700019042E0012F00DA0127C5
:1011A0000021112F01DD112000E03846CDE90001BA
:1011B00004A90CA8FFF7B4FCDDE90D010C9A00911D
:1011C0004FF0000BB946109221070FD4009A4A4500
:1011D00003DA914601E0A9F10109B9F1010F05DD3A
:1011E000109AA9F10101515C3029F4D0B84202DA19
:1011F00010F1040F03DA0121CDE9011010E00028FD
:1012000003DC8344A9EB000102E0411C494500DDF9
:101210008946A0EB0B00401C01904FF0004002906B
:10122000200705D40198484502DB4FF0FF300190BC
:1012300000208DF84B0002980DF14B07B0F1004FE4
:1012400025D002200C902B200D90029800280CDA5B
:10125000404202902D200D9007E00A210298FFF7EE
:1012600026F93031029007F8011D0C99481E0C90A8
:101270000029F2DC02980028EFD1791E0D98087041
:10128000307800F0200040F0450007F8020D11A86A
:10129000C01BC01D02901398007800B1012000EB24
:1012A0000901019801EBE071029801440398401A8A
:1012B000401E0390E00306D453462146179A039834
:1012C00000F05CF805441398007818B1524617995D
:1012D00090476D1CE00323D553462146179A039887
:1012E00000F04CF805441BE0BBF1000F07DB009851
:1012F000584504DD1098179910F80B0001E0179974
:1013000030205246904701980BF1010B401E05F129
:101310000105019004D12E205246179990476D1C6B
:10132000B9F10001A9F10109DEDC05E017F8010BB4
:101330005246179990476D1C0299481E0290002949
:10134000F4DC53462146179A03989EE62D000000D0
:101350002B000000200000002DE9F041044600258C
:101360001E461746880404D405E039462020B047BD
:101370006D1C641EF9D52846BDE8F0812DE9F041C9
:10138000044600251E469046C80301D5302700E0DC
:101390002027880404D505E041463846B0476D1C37
:1013A000641EF9D52846BDE8F081000000BF054A5B
:1013B000128802F08002002AF9D0C2B2014B1B1D34
:1013C0001A807047004400402B48806940F01400A8
:1013D000294988612948006820F47060274908601D
:1013E0000846006840F4106008600846006820F471
:1013F000704008600846006840F480400860084675
:10140000006820F4700008600846006840F480100E
:1014100008601B48406820F470001949486008467D
:10142000406840F40000486048140861FFF712FA71
:1014300021E01448008800F0200088B11149091DFE
:101440000988C8B2302804D120210C4A103211601A
:1014500005E0312803D12021084A1432116000BF71
:101460000748806800F4005028B900F00DF84FF4E8
:101470007A70FFF76FF9DCE70010024000080140C6
:10148000001001400044004010B502A0FFF728FB07
:1014900010BD000068656C6C6F2065766572796FB1
:1014A0006E650A00C414000800000020240000003B
:1014B000000B0008E81400082400002004100000BD
:1014C000100B0008000000000102030401020304E5
:1014D00006070809020406080000000000000000DA
:0814E000000000000000000004
:04000005080000ED02
:00000001FF
