:020000040800F2
:1000000010100020050100085B01000853010008E2
:10001000570100084D0100082903000800000000F6
:10002000000000000000000000000000C501000802
:10003000510100080000000097010008B10200080B
:100040001F0100081F0100081F0100081F01000810
:100050001F0100081F0100081F0100081F01000800
:100060001F0100081F0100081F0100081F010008F0
:100070001F0100081F0100081F0100081F010008E0
:100080001F0100081F0100081F0100081F010008D0
:100090001F0100081F0100081F0100081F010008C0
:1000A0001F0100081F0100081F0100081F010008B0
:1000B0001F0100081F0100081F0100081F010008A0
:1000C0001F0100081F0100081F0100081F01000890
:1000D0001F0100081F0100081F0100081F01000880
:1000E0001F0100081F0100081F010008DFF810D0E1
:1000F00000F01AF80048004759030008AFF30080E9
:10010000101000200648804706480047FEE7FEE73B
:10011000FEE7FEE7FEE7FEE7FEE7FEE7FEE7FEE7B7
:10012000C9020008ED000008064C074D06E0E06833
:1001300040F0010394E8070098471034AC42F6D32E
:10014000FFF7D8FF340400085404000800BFFEE79E
:10015000704700BFFEE700BFFEE77047F0B50746F7
:100160000D46164600F042F9384600F00DF910B180
:1001700000F048F9F0BD002000F006F9002404E08A
:10018000285D00F001F9601CC4B2B442F8DB00F055
:1001900039F900BFEEE770470848806940F0040075
:1001A000064988610648006820F0FF00044908609D
:1001B0000846006840F06600086070470010024082
:1001C00000080140704710B500F002F810BD0000B3
:1001D0000CB50020019000903348006840F4803056
:1001E0003149086000BF3048006800F400300090DA
:1001F0000198401C0190009818B90198B0F5A06FC3
:10020000F1D12948006800F4003010B101200090BD
:1002100001E0002000900098012843D123480068A5
:1002200040F01000214908600846006820F00700EF
:1002300008600846006840F0020008601A484068FC
:10024000194948600846406848600846406840F4DC
:10025000806048600846406820F47C10486008468A
:10026000406840F4E81048600846006840F080703C
:10027000086000BF0C48006800F000700028F9D04A
:100280000948406820F00300074948600846406874
:1002900040F00200486000BF0348406800F00C00D6
:1002A0000828F9D10CBD00000010024000200240D7
:1002B0000448036840685A1C40F1000001490A6084
:1002C000486070470000002010B51348006840F0F7
:1002D00001001149086008464068104908400E496D
:1002E0004860084600680E4908400B490860084607
:1002F000006820F4802008600846406820F4FE0072
:1003000048604FF41F008860FFF75DFF4FF000600A
:100310000449086010BD0000001002400000FFF812
:10032000FFFFF6FE08ED00E000BFFEE702E008C8B0
:10033000121F08C1002AFAD170477047002001E05F
:1003400001C1121F002AFBD17047C200002100E04A
:10035000491C9142FCD3704708B5FFF71DFF08A068
:10036000006800900AE0042269467820FFF7F6FE54
:10037000002000E0401C03498842FBD3F3E7000063
:100380008D14AFA540420F0030B50546072415E097
:100390004FF48030144908600120A040284010B17B
:1003A0000220086003E04FF400300F49086001208C
:1003B000FFF7CBFF01200C490860641E002CE7DA30
:1003C0004FF4803008490860022008600120FFF7E0
:1003D000BCFF012004490860FFF7B7FF0248083856
:1003E0000068C0F3400030BD1008014000B54FF474
:1003F0000030034908600120FFF7A7FF00BD00009F
:100400001008014000B54FF48030094908604000F1
:1004100008600120FFF799FF012005490860FFF7F8
:1004200094FF0220024908600120FFF78EFF00BD03
:100430001008014054040008000000200C000000D7
:100440002C030008600400080C00002004100000C9
:100450003C03000800000000000000000000000055
:04000005080000ED02
:00000001FF
