:020000040800F2
:1000000028100020050100083D050008090500082A
:1000100039050008090400084D0800080000000028
:100020000000000000000000000000003906000889
:100030000D04000800000000610500082507000805
:100040001F0100081F0100081F0100081F01000810
:100050001F0100081F0100081F0100081F01000800
:100060001F0100081F0100081F0100081F010008F0
:100070001F0100081F0100081F0100081F010008E0
:100080001F0100081F0100081F0100081F010008D0
:100090001F0100081F0100081F0100081F010008C0
:1000A0001F0100081F0100081F0100081F010008B0
:1000B0001F0100081F0100081F0100081F010008A0
:1000C0001F0100081F0100081F0100081F01000890
:1000D0001F0100081F0100089D0700081F010008FC
:1000E0001F0100081F0100081F010008DFF810D0E1
:1000F00000F078F90048004771080008AFF300806D
:10010000281000200648804706480047FEE7FEE723
:10011000FEE7FEE7FEE7FEE7FEE7FEE7FEE7FEE7B7
:100120003D070008ED000008D2B201E000F8012B05
:10013000491EFBD270470022F6E710B513460A4667
:1001400004461946FFF7F0FF204610BD2DE9F04D9B
:1001500081EA030404F0004B21F0004514464FF0FF
:10016000000A23F0004150EA050220D054EA0102BF
:100170001DD0C5F30A570246C5F31303C1F313009C
:10018000C1F30A5640F4801543F48013A7EB060828
:10019000101BD64608F2FD3873EB050002D308F1B8
:1001A000010801E092185B41B8F1000F03DA00206A
:1001B0000146BDE8F08D00204FF4801106468446CC
:1001C0000EE0171B73EB050705D3121B63EB05034A
:1001D00006434CEA010C49084FEA300092185B4193
:1001E00050EA0107EDD152EA030012D082EA04007E
:1001F00083EA0501084305D0101BAB4106D201225A
:10020000002306E000224FF0004302E06FF00102FD
:1002100053101AEB06004CEB085110EB0A0041EBAF
:100220000B01BDE8F04D00F07FB80EB540F2334150
:1002300002910021CDE900110A460B4600F083F837
:1002400003B000BD01F0004330B421F0004150EA9A
:10025000010206D00A0DA2F56072C1F31301002A53
:1002600002DC30BC00207047440F44EAC104C100E6
:10027000E01830BC00EBC25000F01FB8202A04DBAD
:10028000203A00FA02F1002070479140C2F12003A9
:1002900020FA03F3194390407047202A04DB203AE8
:1002A00021FA02F00021704721FA02F3D040C2F196
:1002B000200291400843194670470029A8BF7047A3
:1002C000401C490008BF20F00100704710B4B0FA8C
:1002D00080FC00FA0CF050EA010404BF10BC704727
:1002E00049B1CCF1200421FA04F411FA0CF118BF41
:1002F000012121430843A3EB0C01CB1D4FEA006110
:100300004FEA102042BF002010BC704700EBC350E2
:1003100010440029A4BF10BC7047401C490008BF0E
:1003200020F0010010BC704710B5141E73F10004DA
:1003300008DA401C41F1000192185B411A4301D1D7
:1003400020F0010010BD2DE9F04D92469B4611B101
:10035000B1FA81F202E0B0FA80F220329046FFF763
:100360008DFF04460F4640EA0A0041EA0B0153465E
:100370005A46084313D0114653EA010019D0C8F178
:1003800040025046FFF789FF05460E465046594643
:100390004246FFF773FF084305D0012004E02046E2
:1003A0003946BDE8F08D0020054346EAE0762C434F
:1003B00037430A986305E40AA0EB08000022FD0A0F
:1003C00044EA47540A3002D500200146E9E7010516
:1003D00010196941DDE9084500196941BDE8F04D92
:1003E000A2E70000064C074D06E0E06840F001037C
:1003F00094E8070098471034AC42F6D3FFF77AFE32
:10040000A8080008C808000800BFFEE77047000001
:1004100070B5044600F00EF805480068051900267E
:1004200000BF034800680021401BB141F9D370BDF3
:10043000180000202DE9F04186B02E4800780028F1
:1004400055D101202B490870142101A8FFF773FE34
:100450004FF0E020006920F001004FF0E02108613A
:1004600000202549086001A800F07CF84FF0E0204A
:10047000006940F002004FF0E021086100211F48B0
:10048000C1774FF47A710298B0FBF1F4B4F1807F38
:1004900009D3E4084FF0E020006920F004004FF099
:1004A000E021086107E04FF0E020006940F004001F
:1004B0004FF0E0210861601E4FF0E02148610846DE
:1004C000006940F001000861496921F07F41481C42
:1004D000FFF7ABFE07463A460B4600200849FFF7F8
:1004E00035FE0546FFF7AEFE0649086000BF06B0C0
:1004F000BDE8F0811C0000201800002000ED00E0A5
:1005000000408F402000002000BFFEE708488069BF
:1005100040F00400064988610648006820F4700035
:10052000044908600846006840F4001008607047FD
:10053000001002400008014000BFFEE770470000C5
:100540000021054801700548006840F040004FF068
:10055000E021C1F80401704726E400E004E100E076
:100560007047000030B500210022002400232D4DEB
:100570006D6805F00C0121B1042905D0082923D1AB
:1005800005E0294D056022E0274D05601FE0254D5F
:100590006D6805F47012234D6D6805F480340225F2
:1005A00005EB92421CB9214D554305600BE01D4DF2
:1005B0006D6805F400351DB11C4D5543056002E022
:1005C000194D5543056002E0174D056000BF00BF9F
:1005D000144D6D6805F0F0010909154D6B5C056857
:1005E000DD4045600F4D6D6805F4E061090A104D6E
:1005F0006B5C4568DD4085600A4D6D6805F46051AF
:10060000C90A0B4D6B5C4568DD40C560054D6D68E2
:1006100005F44041890B074D6B5CC568B5FBF3F5EC
:10062000056130BD0010024000127A0000093D0053
:100630000400002014000020704710B500F002F8FC
:1006400010BD00000CB500200190009033480068F8
:1006500040F480303149086000BF3048006800F441
:10066000003000900198401C0190009818B9019842
:10067000B0F5A06FF1D12948006800F4003010B146
:100680000120009001E0002000900098012843D153
:100690002348006840F010002149086008460068BF
:1006A00020F0070008600846006840F0020008607B
:1006B0001A4840681949486008464068486008463A
:1006C000406840F4806048600846406820F47C1030
:1006D00048600846406840F4E810486008460068F2
:1006E00040F08070086000BF0C48006800F00070A7
:1006F0000028F9D00948406820F003000749486005
:100700000846406840F00200486000BF0348406867
:1007100000F00C000828F9D10CBD000000100240C8
:10072000002002400448036840685A1C40F1000061
:1007300001490A60486070471800002010B513484E
:10074000006840F0010011490860084640681049FF
:1007500008400E494860084600680E4908400B49A9
:1007600008600846006820F4802008600846406859
:1007700020F4FE0048604FF41F008860FFF75DFF23
:100780004FF000600449086010BD000000100240F6
:100790000000FFF8FFFFF6FE08ED00E00E480088BD
:1007A00000F02000B0B10C49091D0988C8B23028FA
:1007B00004D14FF47A71094A11600AE0312803D15B
:1007C000C821064A116004E0322802D13C21034AC4
:1007D000116000BF7047000000440040000000208E
:1007E0001748C06940F400301549C86115480068D1
:1007F00020F47F40134908600846006840F42060F8
:1008000008600846006840F4004008600D48103059
:10081000006840F008000B491031086040F23910C0
:1008200009490880081D008842F20C010843064966
:10083000091D08800846008840F0200008807047A5
:1008400000100240000801400844004000BFFEE7DD
:1008500002E008C8121F08C1002AFAD17047704789
:10086000002001E001C1121F002AFBD170470000E7
:10087000FFF74CFEFFF7B4FFFFF762FE0EE020200B
:100880000749086007480068FFF7C2FD4FF40010F1
:100890000349086003480068FFF7BAFDEFE700006E
:1008A0001008014000000020C808000800000020D7
:1008B0002400000050080008EC0800082400002074
:1008C0000410000060080008E803000000000000B9
:1008D00001020304010203040607080902040608D2
:0C08E0000000000000000000000000000C
:04000005080000ED02
:00000001FF
