:020000040800F2
:100000001010002005010008950100088D0100086E
:10001000910100084D0100081D03000800000000C8
:10002000000000000000000000000000BB0100080C
:100030005101000800000000B9010008A5020008F5
:100040001F0100081F0100081F0100081F01000810
:100050001F0100081F0100081F0100081F01000800
:100060001F0100081F0100081F0100081F010008F0
:100070001F0100081F0100081F0100081F010008E0
:100080001F0100081F0100081F0100081F010008D0
:100090001F0100081F0100081F010008550100088A
:1000A0001F0100081F0100081F0100081F010008B0
:1000B0001F0100081F0100081F0100081F010008A0
:1000C0001F0100081F0100081F0100081F01000890
:1000D0001F0100081F0100081F0100081F01000880
:1000E0001F0100081F0100081F010008DFF810D0E1
:1000F00000F01AF800480047CD030008AFF3008075
:10010000101000200648804706480047FEE7FEE73B
:10011000FEE7FEE7FEE7FEE7FEE7FEE7FEE7FEE7B7
:10012000BD020008ED000008064C074D06E0E0683F
:1001300040F0010394E8070098471034AC42F6D32E
:10014000FFF7D8FFD8030008F803000800BFFEE758
:10015000704700000B48006800F0400028B12020E4
:10016000094908604020074908600648006800F017
:10017000800030B14FF4001003490860802001492D
:1001800008607047140401401008014000BFFEE7FA
:1001900000BFFEE7704700000021054801700548D8
:1001A000006840F400004FF0E021C1F80001704702
:1001B00017E400E000E100E07047704710B500F080
:1001C00001F810BD0CB50020019000903348006884
:1001D00040F480303149086000BF3048006800F4C6
:1001E000003000900198401C0190009818B90198C7
:1001F000B0F5A06FF1D12948006800F4003010B1CB
:100200000120009001E0002000900098012843D1D7
:100210002348006840F01000214908600846006843
:1002200020F0070008600846006840F002000860FF
:100230001A484068194948600846406848600846BE
:10024000406840F4806048600846406820F47C10B4
:1002500048600846406840F4E81048600846006876
:1002600040F08070086000BF0C48006800F000702B
:100270000028F9D00948406820F003000749486089
:100280000846406840F00200486000BF03484068EC
:1002900000F00C000828F9D10CBD0000001002404D
:1002A000002002400448036840685A1C40F10000E6
:1002B00001490A60486070470000002010B51348EB
:1002C000006840F001001149086008464068104984
:1002D00008400E494860084600680E4908400B492E
:1002E00008600846006820F48020086008464068DE
:1002F00020F4FE0048604FF41F008860FFF75EFFA7
:100300004FF000600449086010BD0000001002407A
:100310000000FFF8FFFFF6FE08ED00E000BFFEE77B
:1003200002E008C8121F08C1002AFAD170477047BE
:10033000002001E001C1121F002AFBD1704700001C
:100340001E48806940F005001C4988611C4800680F
:1003500020F470001A4908600846006840F4001054
:1003600008600846006820F07F4008600846006882
:1003700040F00840086012481030006840F0C000AB
:100380000F49103108600F48C06820F470610D48B3
:10039000C160C06820F470410A48C1600A48006822
:1003A00040F0C0000849086007480830006840F085
:1003B000C000054908310860704700000010024085
:1003C000000801400000014000040140FFF7E4FE86
:1003D000FFF7B6FF00BFFEE7F803000800000020AB
:1003E0000C00000020030008040400080C0000209A
:1003F00004100000300300080000000000000000AE
:0404000000000000F8
:04000005080000ED02
:00000001FF
