:020000040800F2
:1000000020100020050100089D0100085301000890
:10001000990100084D0100082D05000800000000AE
:10002000000000000000000000000000B502000811
:1000300051010008000000009F010008A103000812
:100040001F0100081F0100081F0100081F01000810
:100050001F0100081F0100081F0100081F01000800
:100060001F0100081F0100081F0100081F010008F0
:100070001F0100081F0100081F0100081F010008E0
:100080001F0100081F0100081F0100081F010008D0
:100090001F0100081F0100081F0100081F010008C0
:1000A0001F0100081F0100081F0100081F010008B0
:1000B0001F0100081F0100081F0100081F010008A0
:1000C0001F0100081F0100081F0100081F01000890
:1000D0001F0100081F0100081F0100081F01000880
:1000E0001F0100081F0100081F010008DFF810D0E1
:1000F00000F01AF80048004751050008AFF30080EF
:10010000201000200648804706480047FEE7FEE72B
:10011000FEE7FEE7FEE7FEE7FEE7FEE7FEE7FEE7B7
:10012000B9030008ED000008064C074D06E0E06842
:1001300040F0010394E8070098471034AC42F6D32E
:10014000FFF7D8FFEC0500080C06000800BFFEE72B
:10015000704700BFFEE700002DE9F04107460D465D
:10016000164600240BE000BF80210A4800F060F929
:100170000028F9D0295D074800F0D4F9641CB44286
:10018000F1D300BF4021034800F052F90028F9D014
:10019000BDE8F0810044004000BFFEE770477047B3
:1001A00029B1064AD2690243044BDA6104E0034AEA
:1001B000D2698243014BDA617047000000100240AF
:1001C00029B1064A92690243044B9A6104E0034A4A
:1001D00092698243014B9A6170470000001002400F
:1001E00030B500210022002400232D4D6D6805F05C
:1001F0000C0121B1042905D0082923D105E0294D9E
:10020000056022E0274D05601FE0254D6D6805F46F
:100210007012234D6D6805F48034022505EB92427F
:100220001CB9214D554305600BE01D4D6D6805F46B
:1002300000351DB11C4D5543056002E0194D554375
:10024000056002E0174D056000BF00BF144D6D68EA
:1002500005F0F0010909154D6B5C0568DD4045604E
:100260000F4D6D6805F4E061090A104D6B5C45683F
:10027000DD4085600A4D6D6805F46051C90A0B4D7B
:100280006B5C4568DD40C560054D6D6805F4404117
:10029000890B074D6B5CC568B5FBF3F5056130BD97
:1002A0000010024000127A0000093D00000000200A
:1002B00010000020704710B500F002F810BD0000DB
:1002C0000CB50020019000903348006840F4803065
:1002D0003149086000BF3048006800F400300090E9
:1002E0000198401C0190009818B90198B0F5A06FD2
:1002F000F1D12948006800F4003010B101200090CD
:1003000001E0002000900098012843D123480068B4
:1003100040F01000214908600846006820F00700FE
:1003200008600846006840F0020008601A4840680B
:10033000194948600846406848600846406840F4EB
:10034000806048600846406820F47C104860084699
:10035000406840F4E81048600846006840F080704B
:10036000086000BF0C48006800F000700028F9D059
:100370000948406820F00300074948600846406883
:1003800040F00200486000BF0348406800F00C00E5
:100390000828F9D10CBD00000010024000200240E6
:1003A0000448036840685A1C40F1000001490A6093
:1003B000486070471400002010B51348006840F0F2
:1003C00001001149086008464068104908400E497C
:1003D0004860084600680E4908400B490860084616
:1003E000006820F4802008600846406820F4FE0081
:1003F00048604FF41F008860FFF75DFF4FF000601A
:100400000449086010BD0000001002400000FFF821
:10041000FFFFF6FE08ED00E021B1828942F40052B0
:10042000828104E082894DF6FF731A408281704711
:1004300002460020B1F5007F00D100BF13880B40B9
:100440000BB1012000E00020704700002DE9F047CB
:1004500086B005460E460024A24600BFA1460027EE
:10046000B08900B100BF2F462C8A4CF6FF700440C3
:10047000F08804432C82AC894EF6F3100440B08817
:1004800031890843718908430443AC81AC8A4FF633
:10049000FF400440B0890443AC8201A8FFF7A0FEEE
:1004A0001F48874202D1DDF810A001E0DDF80CA062
:1004B000A88900F4004040B10AEBCA0000EB0A1022
:1004C00031684900B0FBF1F807E00AEBCA0000EB25
:1004D0000A1031688900B0FBF1F86420B8FBF0F035
:1004E00004012009642101FB1089A88900F400405F
:1004F00040B1322000EBC900B0FBF1F000F0070082
:10050000044308E0322000EB09106421B0FBF1F055
:1005100000F00F0004432C8106B0BDE8F087000016
:1005200000380140C1F308028280704700BFFEE737
:1005300002E008C8121F08C1002AFAD170477047AC
:10054000002001E001C1121F002AFBD1704700000A
:1005500086B001210420FFF733FE1F48006820F415
:1005600070601D4908600846006840F4106008602B
:100570000846006820F4704008600846006840F4AF
:100580008040086001214804FFF70AFE4FF4E13083
:1005900002900C20ADF812000020ADF81000ADF86C
:1005A0000E00ADF80C0002A90C48FFF74FFF012127
:1005B0000A48FFF731FF0AA103C9CDE900010AE0AB
:1005C000052269460548FFF7C7FD002000E0401CF2
:1005D00005498842FBD3F3E700080140004400408E
:1005E000010203040500000080841E000C060008C0
:1005F0000000002020000000300500082C06000844
:10060000200000200010000040050008000000004D
:100610000102030401020304060708090204060894
:0C062000000000000000000000000000CE
:04000005080000ED02
:00000001FF
